{
  "address": "0xC1dC7a8379885676a6Ea08E67b7Defd9a235De71",
  "abi": [
    {
      "inputs": [],
      "name": "ETH_ADDRESS",
      "outputs": [
        {
          "internalType": "address",
          "name": "",
          "type": "address"
        }
      ],
      "stateMutability": "view",
      "type": "function"
    },
    {
      "inputs": [
        {
          "internalType": "contract IERC20",
          "name": "_inputToken",
          "type": "address"
        },
        {
          "internalType": "uint256",
          "name": "_inputAmount",
          "type": "uint256"
        },
        {
          "internalType": "bytes",
          "name": "_data",
          "type": "bytes"
        },
        {
          "internalType": "bytes",
          "name": "_auxData",
          "type": "bytes"
        }
      ],
      "name": "canExecute",
      "outputs": [
        {
          "internalType": "bool",
          "name": "",
          "type": "bool"
        }
      ],
      "stateMutability": "view",
      "type": "function"
    },
    {
      "inputs": [
        {
          "internalType": "contract IERC20",
          "name": "_inputToken",
          "type": "address"
        },
        {
          "internalType": "uint256",
          "name": "",
          "type": "uint256"
        },
        {
          "internalType": "address payable",
          "name": "_owner",
          "type": "address"
        },
        {
          "internalType": "bytes",
          "name": "_data",
          "type": "bytes"
        },
        {
          "internalType": "bytes",
          "name": "_auxData",
          "type": "bytes"
        }
      ],
      "name": "execute",
      "outputs": [
        {
          "internalType": "uint256",
          "name": "protectedFunds",
          "type": "uint256"
        }
      ],
      "stateMutability": "nonpayable",
      "type": "function"
    },
    {
      "stateMutability": "payable",
      "type": "receive"
    }
  ],
  "transactionHash": "0x448c5d54465b5dbdfbd7622ee9413cf2a3e394c781634a44a9358a377366d250",
  "args": [],
  "solcInputHash": "f878322ecf227197a94ba528cfbbe037",
  "bytecode": "0x608060405234801561001057600080fd5b50610c3c806100206000396000f3fe6080604052600436106100385760003560e01c8063a734f06e14610044578063e7ed35e314610085578063fd516dab146101be5761003f565b3661003f57005b600080fd5b34801561005057600080fd5b506100596102d9565b604051808273ffffffffffffffffffffffffffffffffffffffff16815260200191505060405180910390f35b34801561009157600080fd5b506101a8600480360360a08110156100a857600080fd5b81019080803573ffffffffffffffffffffffffffffffffffffffff16906020019092919080359060200190929190803573ffffffffffffffffffffffffffffffffffffffff1690602001909291908035906020019064010000000081111561010f57600080fd5b82018360208201111561012157600080fd5b8035906020019184600183028401116401000000008311171561014357600080fd5b90919293919293908035906020019064010000000081111561016457600080fd5b82018360208201111561017657600080fd5b8035906020019184600183028401116401000000008311171561019857600080fd5b90919293919293905050506102f1565b6040518082815260200191505060405180910390f35b3480156101ca57600080fd5b506102c1600480360360808110156101e157600080fd5b81019080803573ffffffffffffffffffffffffffffffffffffffff169060200190929190803590602001909291908035906020019064010000000081111561022857600080fd5b82018360208201111561023a57600080fd5b8035906020019184600183028401116401000000008311171561025c57600080fd5b90919293919293908035906020019064010000000081111561027d57600080fd5b82018360208201111561028f57600080fd5b803590602001918460018302840111640100000000831117156102b157600080fd5b909192939192939050505061057c565b60405180821515815260200191505060405180910390f35b73eeeeeeeeeeeeeeeeeeeeeeeeeeeeeeeeeeeeeeee81565b6000806000808787606081101561030757600080fd5b81019080803573ffffffffffffffffffffffffffffffffffffffff169060200190929190803590602001909291908035906020019092919050505092509250925060008686602081101561035a57600080fd5b81019080803573ffffffffffffffffffffffffffffffffffffffff1690602001909291905050509050600061038f8d3061072a565b905061039c8d838361083e565b8173ffffffffffffffffffffffffffffffffffffffff1663e42f5ea58e8784888d8d6040518763ffffffff1660e01b8152600401808773ffffffffffffffffffffffffffffffffffffffff1681526020018673ffffffffffffffffffffffffffffffffffffffff168152602001858152602001848152602001806020018281038252848482818152602001925080828437600081840152601f19601f820116905080830192505050975050505050505050602060405180830381600087803b15801561046757600080fd5b505af115801561047b573d6000803e3d6000fd5b505050506040513d602081101561049157600080fd5b8101908080519060200190929190505050506104ad853061072a565b955083861115610508576040517f08c379a0000000000000000000000000000000000000000000000000000000008152600401808060200182810382526036815260200180610b476036913960400191505060405180910390fd5b82861015610561576040517f08c379a0000000000000000000000000000000000000000000000000000000008152600401808060200182810382526028815260200180610b7d6028913960400191505060405180910390fd5b61056c858c8861083e565b5050505050979650505050505050565b6000806000808787606081101561059257600080fd5b81019080803573ffffffffffffffffffffffffffffffffffffffff16906020019092919080359060200190929190803590602001909291905050509250925092506000868660208110156105e557600080fd5b81019080803573ffffffffffffffffffffffffffffffffffffffff16906020019092919050505090508073ffffffffffffffffffffffffffffffffffffffff1663f728ff618c868d87878d8d6040518863ffffffff1660e01b8152600401808873ffffffffffffffffffffffffffffffffffffffff1681526020018773ffffffffffffffffffffffffffffffffffffffff168152602001868152602001858152602001848152602001806020018281038252848482818152602001925080828437600081840152601f19601f8201169050808301925050509850505050505050505060206040518083038186803b1580156106df57600080fd5b505afa1580156106f3573d6000803e3d6000fd5b505050506040513d602081101561070957600080fd5b81019080805190602001909291905050509450505050509695505050505050565b60008273ffffffffffffffffffffffffffffffffffffffff1673eeeeeeeeeeeeeeeeeeeeeeeeeeeeeeeeeeeeeeee73ffffffffffffffffffffffffffffffffffffffff161415610793578173ffffffffffffffffffffffffffffffffffffffff16319050610838565b8273ffffffffffffffffffffffffffffffffffffffff166370a08231836040518263ffffffff1660e01b8152600401808273ffffffffffffffffffffffffffffffffffffffff16815260200191505060206040518083038186803b1580156107fa57600080fd5b505afa15801561080e573d6000803e3d6000fd5b505050506040513d602081101561082457600080fd5b810190808051906020019092919050505090505b92915050565b73eeeeeeeeeeeeeeeeeeeeeeeeeeeeeeeeeeeeeeee73ffffffffffffffffffffffffffffffffffffffff168373ffffffffffffffffffffffffffffffffffffffff16141561094b5760008273ffffffffffffffffffffffffffffffffffffffff168260405180600001905060006040518083038185875af1925050503d80600081146108e6576040519150601f19603f3d011682016040523d82523d6000602084013e6108eb565b606091505b5050905080610945576040517f08c379a0000000000000000000000000000000000000000000000000000000008152600401808060200182810382526030815260200180610bd76030913960400191505060405180910390fd5b506109ac565b6109568383836109b1565b6109ab576040517f08c379a0000000000000000000000000000000000000000000000000000000008152600401808060200182810382526032815260200180610ba56032913960400191505060405180910390fd5b5b505050565b60008060608573ffffffffffffffffffffffffffffffffffffffff1663a9059cbb60e01b8686604051602401808373ffffffffffffffffffffffffffffffffffffffff16815260200182815260200192505050604051602081830303815290604052907bffffffffffffffffffffffffffffffffffffffffffffffffffffffff19166020820180517bffffffffffffffffffffffffffffffffffffffffffffffffffffffff83818316178352505050506040518082805190602001908083835b60208310610a945780518252602082019150602081019050602083039250610a71565b6001836020036101000a0380198251168184511680821785525050505050509050019150506000604051808303816000865af19150503d8060008114610af6576040519150601f19603f3d011682016040523d82523d6000602084013e610afb565b606091505b5091509150818015610b3b5750600081511480610b3a5750808060200190516020811015610b2857600080fd5b81019080805190602001909291905050505b5b92505050939250505056fe53746f704c6f73734f726465727323657865637574653a2053544f504c4f53535f5448524553484f4c445f4e4f545f5245414348454453746f704c6f73734f726465727323657865637574653a204f5554534944455f534c4950504147454c696d69744f7264657273235f7472616e73666572416d6f756e743a20544f4b454e5f5452414e534645525f4641494c45444c696d69744f7264657273235f7472616e73666572416d6f756e743a204554485f5452414e534645525f4641494c4544a2646970667358221220f11e397ff2ce52a1642446f42e5516873b733457ef031baae91defb46b4ead5164736f6c634300060c0033",
  "devdoc": {
    "details": "Wrappers over Solidity's arithmetic operations with added overflow checks. Arithmetic operations in Solidity wrap on overflow. This can easily result in bugs, because programmers usually assume that an overflow raises an error, which is the standard behavior in high level programming languages. `SafeMath` restores this intuition by reverting the transaction when an operation overflows. Using this library instead of the unchecked operations eliminates an entire class of bugs, so it's recommended to use it always.",
    "kind": "dev",
    "methods": {
      "canExecute(address,uint256,bytes,bytes)": {
        "params": {
          "_auxData": "- Bytes of the auxiliar data used for the handlers to execute the order",
          "_data": "- Bytes of the order's data",
          "_inputAmount": "- uint256 of the input token amount (order amount)",
          "_inputToken": "- Address of the input token"
        },
        "returns": {
          "_0": "bool - whether the order can be executed or not"
        }
      },
      "execute(address,uint256,address,bytes,bytes)": {
        "params": {
          "_auxData": "- Bytes of the auxiliar data used for the handlers to execute the order",
          "_data": "- Bytes of the order's data",
          "_inputToken": "- Address of the input token",
          "_owner": "- Address of the order's owner"
        },
        "returns": {
          "protectedFunds": "- amount of output token in saved value"
        }
      }
    },
    "version": 1
  },
  "userdoc": {
    "kind": "user",
    "methods": {
      "canExecute(address,uint256,bytes,bytes)": {
        "notice": "Check whether an order can be executed or not"
      },
      "execute(address,uint256,address,bytes,bytes)": {
        "notice": "Executes an order"
      }
    },
    "version": 1
  },
  "storageLayout": {
    "storage": [],
    "types": null
  }
}